{"abi":[{"type":"function","name":"payWithNative","inputs":[{"name":"paymentReference","type":"bytes32","internalType":"bytes32"},{"name":"merchant","type":"address","internalType":"address"},{"name":"memo","type":"string","internalType":"string"}],"outputs":[],"stateMutability":"payable"},{"type":"function","name":"payWithToken","inputs":[{"name":"paymentReference","type":"bytes32","internalType":"bytes32"},{"name":"merchant","type":"address","internalType":"address"},{"name":"token","type":"address","internalType":"address"},{"name":"amount","type":"uint256","internalType":"uint256"},{"name":"memo","type":"string","internalType":"string"}],"outputs":[],"stateMutability":"nonpayable"},{"type":"event","name":"PaymentReceived","inputs":[{"name":"paymentReference","type":"bytes32","indexed":true,"internalType":"bytes32"},{"name":"payer","type":"address","indexed":true,"internalType":"address"},{"name":"merchant","type":"address","indexed":true,"internalType":"address"},{"name":"token","type":"address","indexed":false,"internalType":"address"},{"name":"amount","type":"uint256","indexed":false,"internalType":"uint256"},{"name":"memo","type":"string","indexed":false,"internalType":"string"}],"anonymous":false},{"type":"error","name":"InvalidAmount","inputs":[]},{"type":"error","name":"InvalidMerchant","inputs":[]},{"type":"error","name":"InvalidReference","inputs":[]},{"type":"error","name":"NativeTransferFailed","inputs":[]},{"type":"error","name":"ReentrancyGuardReentrantCall","inputs":[]},{"type":"error","name":"TokenTransferFailed","inputs":[]}],"bytecode":{"object":"0x608060405234801561000f575f80fd5b50600161002e61002361003960201b60201c565b61006260201b60201c565b5f018190555061006b565b5f7f9b779b17422d0df92223018b32b4d1fa46e071723d6817e2486d003becc55f005f1b905090565b5f819050919050565b61087a806100785f395ff3fe608060405260043610610028575f3560e01c80632e9ff2191461002c5780638e6efa1814610048575b5f80fd5b6100466004803603810190610041919061057e565b610070565b005b348015610053575f80fd5b5061006e60048036038101906100699190610622565b61019d565b005b6100786102df565b610083848434610301565b5f8373ffffffffffffffffffffffffffffffffffffffff16346040516100a8906106e5565b5f6040518083038185875af1925050503d805f81146100e2576040519150601f19603f3d011682016040523d82523d5f602084013e6100e7565b606091505b5050905080610122576040517ff4b3b1bc00000000000000000000000000000000000000000000000000000000815260040160405180910390fd5b8373ffffffffffffffffffffffffffffffffffffffff163373ffffffffffffffffffffffffffffffffffffffff16867f303986d786a32a36a7a483321e28e03c1ec1f8d6c095949ead336ea1cba925a65f3488886040516101869493929190610771565b60405180910390a4506101976103df565b50505050565b6101a56102df565b6101b0868685610301565b8373ffffffffffffffffffffffffffffffffffffffff166323b872dd3387866040518463ffffffff1660e01b81526004016101ed939291906107af565b6020604051808303815f875af1158015610209573d5f803e3d5ffd5b505050506040513d601f19601f8201168201806040525081019061022d9190610819565b610263576040517f045c4b0200000000000000000000000000000000000000000000000000000000815260040160405180910390fd5b8473ffffffffffffffffffffffffffffffffffffffff163373ffffffffffffffffffffffffffffffffffffffff16877f303986d786a32a36a7a483321e28e03c1ec1f8d6c095949ead336ea1cba925a6878787876040516102c79493929190610771565b60405180910390a46102d76103df565b505050505050565b6102e76103f9565b60026102f96102f461043a565b610463565b5f0181905550565b5f801b830361033c576040517f5f41ff9200000000000000000000000000000000000000000000000000000000815260040160405180910390fd5b5f73ffffffffffffffffffffffffffffffffffffffff168273ffffffffffffffffffffffffffffffffffffffff16036103a1576040517fc0b6c91900000000000000000000000000000000000000000000000000000000815260040160405180910390fd5b5f81036103da576040517f2c5211c600000000000000000000000000000000000000000000000000000000815260040160405180910390fd5b505050565b60016103f16103ec61043a565b610463565b5f0181905550565b61040161046c565b15610438576040517f3ee5aeb500000000000000000000000000000000000000000000000000000000815260040160405180910390fd5b565b5f7f9b779b17422d0df92223018b32b4d1fa46e071723d6817e2486d003becc55f005f1b905090565b5f819050919050565b5f600261047f61047a61043a565b610463565b5f015414905090565b5f80fd5b5f80fd5b5f819050919050565b6104a281610490565b81146104ac575f80fd5b50565b5f813590506104bd81610499565b92915050565b5f73ffffffffffffffffffffffffffffffffffffffff82169050919050565b5f6104ec826104c3565b9050919050565b6104fc816104e2565b8114610506575f80fd5b50565b5f81359050610517816104f3565b92915050565b5f80fd5b5f80fd5b5f80fd5b5f8083601f84011261053e5761053d61051d565b5b8235905067ffffffffffffffff81111561055b5761055a610521565b5b60208301915083600182028301111561057757610576610525565b5b9250929050565b5f805f806060858703121561059657610595610488565b5b5f6105a3878288016104af565b94505060206105b487828801610509565b935050604085013567ffffffffffffffff8111156105d5576105d461048c565b5b6105e187828801610529565b925092505092959194509250565b5f819050919050565b610601816105ef565b811461060b575f80fd5b50565b5f8135905061061c816105f8565b92915050565b5f805f805f8060a0878903121561063c5761063b610488565b5b5f61064989828a016104af565b965050602061065a89828a01610509565b955050604061066b89828a01610509565b945050606061067c89828a0161060e565b935050608087013567ffffffffffffffff81111561069d5761069c61048c565b5b6106a989828a01610529565b92509250509295509295509295565b5f81905092915050565b50565b5f6106d05f836106b8565b91506106db826106c2565b5f82019050919050565b5f6106ef826106c5565b9150819050919050565b610702816104e2565b82525050565b610711816105ef565b82525050565b5f82825260208201905092915050565b828183375f83830152505050565b5f601f19601f8301169050919050565b5f6107508385610717565b935061075d838584610727565b61076683610735565b840190509392505050565b5f6060820190506107845f8301876106f9565b6107916020830186610708565b81810360408301526107a4818486610745565b905095945050505050565b5f6060820190506107c25f8301866106f9565b6107cf60208301856106f9565b6107dc6040830184610708565b949350505050565b5f8115159050919050565b6107f8816107e4565b8114610802575f80fd5b50565b5f81519050610813816107ef565b92915050565b5f6020828403121561082e5761082d610488565b5b5f61083b84828501610805565b9150509291505056fea2646970667358221220707da5f42c2bdd986b962ca5088d8c4cbc5984ad6b148930e83a261dc91ff9de64736f6c63430008180033","linkReferences":{}},"methodIdentifiers":{"payWithNative(bytes32,address,string)":"2e9ff219","payWithToken(bytes32,address,address,uint256,string)":"8e6efa18"},"id":0}